{
  "_format": "hh-sol-artifact-1",
  "contractName": "MyNFT",
  "sourceName": "contracts/MyNFT.sol",
  "abi": [
    {
      "inputs": [],
      "stateMutability": "nonpayable",
      "type": "constructor"
    },
    {
      "inputs": [
        {
          "internalType": "address",
          "name": "sender",
          "type": "address"
        },
        {
          "internalType": "uint256",
          "name": "tokenId",
          "type": "uint256"
        },
        {
          "internalType": "address",
          "name": "owner",
          "type": "address"
        }
      ],
      "name": "ERC721IncorrectOwner",
      "type": "error"
    },
    {
      "inputs": [
        {
          "internalType": "address",
          "name": "operator",
          "type": "address"
        },
        {
          "internalType": "uint256",
          "name": "tokenId",
          "type": "uint256"
        }
      ],
      "name": "ERC721InsufficientApproval",
      "type": "error"
    },
    {
      "inputs": [
        {
          "internalType": "address",
          "name": "approver",
          "type": "address"
        }
      ],
      "name": "ERC721InvalidApprover",
      "type": "error"
    },
    {
      "inputs": [
        {
          "internalType": "address",
          "name": "operator",
          "type": "address"
        }
      ],
      "name": "ERC721InvalidOperator",
      "type": "error"
    },
    {
      "inputs": [
        {
          "internalType": "address",
          "name": "owner",
          "type": "address"
        }
      ],
      "name": "ERC721InvalidOwner",
      "type": "error"
    },
    {
      "inputs": [
        {
          "internalType": "address",
          "name": "receiver",
          "type": "address"
        }
      ],
      "name": "ERC721InvalidReceiver",
      "type": "error"
    },
    {
      "inputs": [
        {
          "internalType": "address",
          "name": "sender",
          "type": "address"
        }
      ],
      "name": "ERC721InvalidSender",
      "type": "error"
    },
    {
      "inputs": [
        {
          "internalType": "uint256",
          "name": "tokenId",
          "type": "uint256"
        }
      ],
      "name": "ERC721NonexistentToken",
      "type": "error"
    },
    {
      "inputs": [
        {
          "internalType": "address",
          "name": "owner",
          "type": "address"
        }
      ],
      "name": "OwnableInvalidOwner",
      "type": "error"
    },
    {
      "inputs": [
        {
          "internalType": "address",
          "name": "account",
          "type": "address"
        }
      ],
      "name": "OwnableUnauthorizedAccount",
      "type": "error"
    },
    {
      "anonymous": false,
      "inputs": [
        {
          "indexed": true,
          "internalType": "address",
          "name": "owner",
          "type": "address"
        },
        {
          "indexed": true,
          "internalType": "address",
          "name": "approved",
          "type": "address"
        },
        {
          "indexed": true,
          "internalType": "uint256",
          "name": "tokenId",
          "type": "uint256"
        }
      ],
      "name": "Approval",
      "type": "event"
    },
    {
      "anonymous": false,
      "inputs": [
        {
          "indexed": true,
          "internalType": "address",
          "name": "owner",
          "type": "address"
        },
        {
          "indexed": true,
          "internalType": "address",
          "name": "operator",
          "type": "address"
        },
        {
          "indexed": false,
          "internalType": "bool",
          "name": "approved",
          "type": "bool"
        }
      ],
      "name": "ApprovalForAll",
      "type": "event"
    },
    {
      "anonymous": false,
      "inputs": [
        {
          "indexed": false,
          "internalType": "uint256",
          "name": "_fromTokenId",
          "type": "uint256"
        },
        {
          "indexed": false,
          "internalType": "uint256",
          "name": "_toTokenId",
          "type": "uint256"
        }
      ],
      "name": "BatchMetadataUpdate",
      "type": "event"
    },
    {
      "anonymous": false,
      "inputs": [
        {
          "indexed": false,
          "internalType": "uint256",
          "name": "_tokenId",
          "type": "uint256"
        }
      ],
      "name": "MetadataUpdate",
      "type": "event"
    },
    {
      "anonymous": false,
      "inputs": [
        {
          "indexed": true,
          "internalType": "address",
          "name": "previousOwner",
          "type": "address"
        },
        {
          "indexed": true,
          "internalType": "address",
          "name": "newOwner",
          "type": "address"
        }
      ],
      "name": "OwnershipTransferred",
      "type": "event"
    },
    {
      "anonymous": false,
      "inputs": [
        {
          "indexed": true,
          "internalType": "address",
          "name": "from",
          "type": "address"
        },
        {
          "indexed": true,
          "internalType": "address",
          "name": "to",
          "type": "address"
        },
        {
          "indexed": true,
          "internalType": "uint256",
          "name": "tokenId",
          "type": "uint256"
        }
      ],
      "name": "Transfer",
      "type": "event"
    },
    {
      "inputs": [
        {
          "internalType": "address",
          "name": "to",
          "type": "address"
        },
        {
          "internalType": "uint256",
          "name": "tokenId",
          "type": "uint256"
        }
      ],
      "name": "approve",
      "outputs": [],
      "stateMutability": "nonpayable",
      "type": "function"
    },
    {
      "inputs": [
        {
          "internalType": "address",
          "name": "owner",
          "type": "address"
        }
      ],
      "name": "balanceOf",
      "outputs": [
        {
          "internalType": "uint256",
          "name": "",
          "type": "uint256"
        }
      ],
      "stateMutability": "view",
      "type": "function"
    },
    {
      "inputs": [
        {
          "internalType": "uint256",
          "name": "tokenId",
          "type": "uint256"
        }
      ],
      "name": "getApproved",
      "outputs": [
        {
          "internalType": "address",
          "name": "",
          "type": "address"
        }
      ],
      "stateMutability": "view",
      "type": "function"
    },
    {
      "inputs": [
        {
          "internalType": "address",
          "name": "owner",
          "type": "address"
        },
        {
          "internalType": "address",
          "name": "operator",
          "type": "address"
        }
      ],
      "name": "isApprovedForAll",
      "outputs": [
        {
          "internalType": "bool",
          "name": "",
          "type": "bool"
        }
      ],
      "stateMutability": "view",
      "type": "function"
    },
    {
      "inputs": [
        {
          "internalType": "address",
          "name": "to",
          "type": "address"
        },
        {
          "internalType": "string",
          "name": "tokenURI",
          "type": "string"
        }
      ],
      "name": "mintNFT",
      "outputs": [
        {
          "internalType": "uint256",
          "name": "",
          "type": "uint256"
        }
      ],
      "stateMutability": "nonpayable",
      "type": "function"
    },
    {
      "inputs": [],
      "name": "name",
      "outputs": [
        {
          "internalType": "string",
          "name": "",
          "type": "string"
        }
      ],
      "stateMutability": "view",
      "type": "function"
    },
    {
      "inputs": [],
      "name": "owner",
      "outputs": [
        {
          "internalType": "address",
          "name": "",
          "type": "address"
        }
      ],
      "stateMutability": "view",
      "type": "function"
    },
    {
      "inputs": [
        {
          "internalType": "uint256",
          "name": "tokenId",
          "type": "uint256"
        }
      ],
      "name": "ownerOf",
      "outputs": [
        {
          "internalType": "address",
          "name": "",
          "type": "address"
        }
      ],
      "stateMutability": "view",
      "type": "function"
    },
    {
      "inputs": [],
      "name": "renounceOwnership",
      "outputs": [],
      "stateMutability": "nonpayable",
      "type": "function"
    },
    {
      "inputs": [
        {
          "internalType": "address",
          "name": "from",
          "type": "address"
        },
        {
          "internalType": "address",
          "name": "to",
          "type": "address"
        },
        {
          "internalType": "uint256",
          "name": "tokenId",
          "type": "uint256"
        }
      ],
      "name": "safeTransferFrom",
      "outputs": [],
      "stateMutability": "nonpayable",
      "type": "function"
    },
    {
      "inputs": [
        {
          "internalType": "address",
          "name": "from",
          "type": "address"
        },
        {
          "internalType": "address",
          "name": "to",
          "type": "address"
        },
        {
          "internalType": "uint256",
          "name": "tokenId",
          "type": "uint256"
        },
        {
          "internalType": "bytes",
          "name": "data",
          "type": "bytes"
        }
      ],
      "name": "safeTransferFrom",
      "outputs": [],
      "stateMutability": "nonpayable",
      "type": "function"
    },
    {
      "inputs": [
        {
          "internalType": "address",
          "name": "operator",
          "type": "address"
        },
        {
          "internalType": "bool",
          "name": "approved",
          "type": "bool"
        }
      ],
      "name": "setApprovalForAll",
      "outputs": [],
      "stateMutability": "nonpayable",
      "type": "function"
    },
    {
      "inputs": [
        {
          "internalType": "bytes4",
          "name": "interfaceId",
          "type": "bytes4"
        }
      ],
      "name": "supportsInterface",
      "outputs": [
        {
          "internalType": "bool",
          "name": "",
          "type": "bool"
        }
      ],
      "stateMutability": "view",
      "type": "function"
    },
    {
      "inputs": [],
      "name": "symbol",
      "outputs": [
        {
          "internalType": "string",
          "name": "",
          "type": "string"
        }
      ],
      "stateMutability": "view",
      "type": "function"
    },
    {
      "inputs": [],
      "name": "tokenCount",
      "outputs": [
        {
          "internalType": "uint256",
          "name": "",
          "type": "uint256"
        }
      ],
      "stateMutability": "view",
      "type": "function"
    },
    {
      "inputs": [
        {
          "internalType": "uint256",
          "name": "tokenId",
          "type": "uint256"
        }
      ],
      "name": "tokenURI",
      "outputs": [
        {
          "internalType": "string",
          "name": "",
          "type": "string"
        }
      ],
      "stateMutability": "view",
      "type": "function"
    },
    {
      "inputs": [
        {
          "internalType": "address",
          "name": "from",
          "type": "address"
        },
        {
          "internalType": "address",
          "name": "to",
          "type": "address"
        },
        {
          "internalType": "uint256",
          "name": "tokenId",
          "type": "uint256"
        }
      ],
      "name": "transferFrom",
      "outputs": [],
      "stateMutability": "nonpayable",
      "type": "function"
    },
    {
      "inputs": [
        {
          "internalType": "address",
          "name": "newOwner",
          "type": "address"
        }
      ],
      "name": "transferOwnership",
      "outputs": [],
      "stateMutability": "nonpayable",
      "type": "function"
    }
  ],
  "bytecode": "0x60806040523480156200001157600080fd5b50336040518060400160405280600781526020017f4b4941204e4654000000000000000000000000000000000000000000000000008152506040518060400160405280600481526020017f4b4e465400000000000000000000000000000000000000000000000000000000815250816000908162000090919062000472565b508060019081620000a2919062000472565b505050600073ffffffffffffffffffffffffffffffffffffffff168173ffffffffffffffffffffffffffffffffffffffff16036200011a5760006040517f1e4fbdf70000000000000000000000000000000000000000000000000000000081526004016200011191906200059e565b60405180910390fd5b6200012b816200013260201b60201c565b50620005bb565b6000600760009054906101000a900473ffffffffffffffffffffffffffffffffffffffff16905081600760006101000a81548173ffffffffffffffffffffffffffffffffffffffff021916908373ffffffffffffffffffffffffffffffffffffffff1602179055508173ffffffffffffffffffffffffffffffffffffffff168173ffffffffffffffffffffffffffffffffffffffff167f8be0079c531659141344cd1fd0a4f28419497f9722a3daafe3b4186f6b6457e060405160405180910390a35050565b600081519050919050565b7f4e487b7100000000000000000000000000000000000000000000000000000000600052604160045260246000fd5b7f4e487b7100000000000000000000000000000000000000000000000000000000600052602260045260246000fd5b600060028204905060018216806200027a57607f821691505b60208210810362000290576200028f62000232565b5b50919050565b60008190508160005260206000209050919050565b60006020601f8301049050919050565b600082821b905092915050565b600060088302620002fa7fffffffffffffffffffffffffffffffffffffffffffffffffffffffffffffffff82620002bb565b620003068683620002bb565b95508019841693508086168417925050509392505050565b6000819050919050565b6000819050919050565b6000620003536200034d62000347846200031e565b62000328565b6200031e565b9050919050565b6000819050919050565b6200036f8362000332565b620003876200037e826200035a565b848454620002c8565b825550505050565b600090565b6200039e6200038f565b620003ab81848462000364565b505050565b5b81811015620003d357620003c760008262000394565b600181019050620003b1565b5050565b601f8211156200042257620003ec8162000296565b620003f784620002ab565b8101602085101562000407578190505b6200041f6200041685620002ab565b830182620003b0565b50505b505050565b600082821c905092915050565b6000620004476000198460080262000427565b1980831691505092915050565b600062000462838362000434565b9150826002028217905092915050565b6200047d82620001f8565b67ffffffffffffffff81111562000499576200049862000203565b5b620004a5825462000261565b620004b2828285620003d7565b600060209050601f831160018114620004ea5760008415620004d5578287015190505b620004e1858262000454565b86555062000551565b601f198416620004fa8662000296565b60005b828110156200052457848901518255600182019150602085019450602081019050620004fd565b8683101562000544578489015162000540601f89168262000434565b8355505b6001600288020188555050505b505050505050565b600073ffffffffffffffffffffffffffffffffffffffff82169050919050565b6000620005868262000559565b9050919050565b620005988162000579565b82525050565b6000602082019050620005b560008301846200058d565b92915050565b6126b080620005cb6000396000f3fe608060405234801561001057600080fd5b50600436106101165760003560e01c80638da5cb5b116100a2578063b88d4fde11610071578063b88d4fde146102cd578063c87b56dd146102e9578063e985e9c514610319578063eacabe1414610349578063f2fde38b1461037957610116565b80638da5cb5b1461025757806395d89b41146102755780639f181b5e14610293578063a22cb465146102b157610116565b806323b872dd116100e957806323b872dd146101b557806342842e0e146101d15780636352211e146101ed57806370a082311461021d578063715018a61461024d57610116565b806301ffc9a71461011b57806306fdde031461014b578063081812fc14610169578063095ea7b314610199575b600080fd5b61013560048036038101906101309190611b08565b610395565b6040516101429190611b50565b60405180910390f35b6101536103f6565b6040516101609190611bfb565b60405180910390f35b610183600480360381019061017e9190611c53565b610488565b6040516101909190611cc1565b60405180910390f35b6101b360048036038101906101ae9190611d08565b6104a4565b005b6101cf60048036038101906101ca9190611d48565b6104ba565b005b6101eb60048036038101906101e69190611d48565b6105bc565b005b61020760048036038101906102029190611c53565b6105dc565b6040516102149190611cc1565b60405180910390f35b61023760048036038101906102329190611d9b565b6105ee565b6040516102449190611dd7565b60405180910390f35b6102556106a8565b005b61025f6106bc565b60405161026c9190611cc1565b60405180910390f35b61027d6106e6565b60405161028a9190611bfb565b60405180910390f35b61029b610778565b6040516102a89190611dd7565b60405180910390f35b6102cb60048036038101906102c69190611e1e565b61077e565b005b6102e760048036038101906102e29190611f93565b610794565b005b61030360048036038101906102fe9190611c53565b6107b9565b6040516103109190611bfb565b60405180910390f35b610333600480360381019061032e9190612016565b6108cc565b6040516103409190611b50565b60405180910390f35b610363600480360381019061035e91906120f7565b610960565b6040516103709190611dd7565b60405180910390f35b610393600480360381019061038e9190611d9b565b6109a5565b005b6000634906490660e01b7bffffffffffffffffffffffffffffffffffffffffffffffffffffffff1916827bffffffffffffffffffffffffffffffffffffffffffffffffffffffff191614806103ef57506103ee82610a2b565b5b9050919050565b60606000805461040590612182565b80601f016020809104026020016040519081016040528092919081815260200182805461043190612182565b801561047e5780601f106104535761010080835404028352916020019161047e565b820191906000526020600020905b81548152906001019060200180831161046157829003601f168201915b5050505050905090565b600061049382610b0d565b5061049d82610b95565b9050919050565b6104b682826104b1610bd2565b610bda565b5050565b600073ffffffffffffffffffffffffffffffffffffffff168273ffffffffffffffffffffffffffffffffffffffff160361052c5760006040517f64a0ae920000000000000000000000000000000000000000000000000000000081526004016105239190611cc1565b60405180910390fd5b6000610540838361053b610bd2565b610bec565b90508373ffffffffffffffffffffffffffffffffffffffff168173ffffffffffffffffffffffffffffffffffffffff16146105b6578382826040517f64283d7b0000000000000000000000000000000000000000000000000000000081526004016105ad939291906121b3565b60405180910390fd5b50505050565b6105d783838360405180602001604052806000815250610794565b505050565b60006105e782610b0d565b9050919050565b60008073ffffffffffffffffffffffffffffffffffffffff168273ffffffffffffffffffffffffffffffffffffffff16036106615760006040517f89c62b640000000000000000000000000000000000000000000000000000000081526004016106589190611cc1565b60405180910390fd5b600360008373ffffffffffffffffffffffffffffffffffffffff1673ffffffffffffffffffffffffffffffffffffffff168152602001908152602001600020549050919050565b6106b0610e06565b6106ba6000610e8d565b565b6000600760009054906101000a900473ffffffffffffffffffffffffffffffffffffffff16905090565b6060600180546106f590612182565b80601f016020809104026020016040519081016040528092919081815260200182805461072190612182565b801561076e5780601f106107435761010080835404028352916020019161076e565b820191906000526020600020905b81548152906001019060200180831161075157829003601f168201915b5050505050905090565b60085481565b610790610789610bd2565b8383610f53565b5050565b61079f8484846104ba565b6107b36107aa610bd2565b858585856110c2565b50505050565b60606107c482610b0d565b5060006006600084815260200190815260200160002080546107e590612182565b80601f016020809104026020016040519081016040528092919081815260200182805461081190612182565b801561085e5780601f106108335761010080835404028352916020019161085e565b820191906000526020600020905b81548152906001019060200180831161084157829003601f168201915b50505050509050600061086f611273565b905060008151036108845781925050506108c7565b6000825111156108b95780826040516020016108a1929190612226565b604051602081830303815290604052925050506108c7565b6108c28461128a565b925050505b919050565b6000600560008473ffffffffffffffffffffffffffffffffffffffff1673ffffffffffffffffffffffffffffffffffffffff16815260200190815260200160002060008373ffffffffffffffffffffffffffffffffffffffff1673ffffffffffffffffffffffffffffffffffffffff16815260200190815260200160002060009054906101000a900460ff16905092915050565b600061096a610e06565b6008600081548092919061097d90612279565b919050555061098e836008546112f3565b61099a60085483611311565b600854905092915050565b6109ad610e06565b600073ffffffffffffffffffffffffffffffffffffffff168173ffffffffffffffffffffffffffffffffffffffff1603610a1f5760006040517f1e4fbdf7000000000000000000000000000000000000000000000000000000008152600401610a169190611cc1565b60405180910390fd5b610a2881610e8d565b50565b60007f80ac58cd000000000000000000000000000000000000000000000000000000007bffffffffffffffffffffffffffffffffffffffffffffffffffffffff1916827bffffffffffffffffffffffffffffffffffffffffffffffffffffffff19161480610af657507f5b5e139f000000000000000000000000000000000000000000000000000000007bffffffffffffffffffffffffffffffffffffffffffffffffffffffff1916827bffffffffffffffffffffffffffffffffffffffffffffffffffffffff1916145b80610b065750610b058261136d565b5b9050919050565b600080610b19836113d7565b9050600073ffffffffffffffffffffffffffffffffffffffff168173ffffffffffffffffffffffffffffffffffffffff1603610b8c57826040517f7e273289000000000000000000000000000000000000000000000000000000008152600401610b839190611dd7565b60405180910390fd5b80915050919050565b60006004600083815260200190815260200160002060009054906101000a900473ffffffffffffffffffffffffffffffffffffffff169050919050565b600033905090565b610be78383836001611414565b505050565b600080610bf8846113d7565b9050600073ffffffffffffffffffffffffffffffffffffffff168373ffffffffffffffffffffffffffffffffffffffff1614610c3a57610c398184866115d9565b5b600073ffffffffffffffffffffffffffffffffffffffff168173ffffffffffffffffffffffffffffffffffffffff1614610ccb57610c7c600085600080611414565b6001600360008373ffffffffffffffffffffffffffffffffffffffff1673ffffffffffffffffffffffffffffffffffffffff168152602001908152602001600020600082825403925050819055505b600073ffffffffffffffffffffffffffffffffffffffff168573ffffffffffffffffffffffffffffffffffffffff1614610d4e576001600360008773ffffffffffffffffffffffffffffffffffffffff1673ffffffffffffffffffffffffffffffffffffffff168152602001908152602001600020600082825401925050819055505b846002600086815260200190815260200160002060006101000a81548173ffffffffffffffffffffffffffffffffffffffff021916908373ffffffffffffffffffffffffffffffffffffffff160217905550838573ffffffffffffffffffffffffffffffffffffffff168273ffffffffffffffffffffffffffffffffffffffff167fddf252ad1be2c89b69c2b068fc378daa952ba7f163c4a11628f55a4df523b3ef60405160405180910390a4809150509392505050565b610e0e610bd2565b73ffffffffffffffffffffffffffffffffffffffff16610e2c6106bc565b73ffffffffffffffffffffffffffffffffffffffff1614610e8b57610e4f610bd2565b6040517f118cdaa7000000000000000000000000000000000000000000000000000000008152600401610e829190611cc1565b60405180910390fd5b565b6000600760009054906101000a900473ffffffffffffffffffffffffffffffffffffffff16905081600760006101000a81548173ffffffffffffffffffffffffffffffffffffffff021916908373ffffffffffffffffffffffffffffffffffffffff1602179055508173ffffffffffffffffffffffffffffffffffffffff168173ffffffffffffffffffffffffffffffffffffffff167f8be0079c531659141344cd1fd0a4f28419497f9722a3daafe3b4186f6b6457e060405160405180910390a35050565b600073ffffffffffffffffffffffffffffffffffffffff168273ffffffffffffffffffffffffffffffffffffffff1603610fc457816040517f5b08ba18000000000000000000000000000000000000000000000000000000008152600401610fbb9190611cc1565b60405180910390fd5b80600560008573ffffffffffffffffffffffffffffffffffffffff1673ffffffffffffffffffffffffffffffffffffffff16815260200190815260200160002060008473ffffffffffffffffffffffffffffffffffffffff1673ffffffffffffffffffffffffffffffffffffffff16815260200190815260200160002060006101000a81548160ff0219169083151502179055508173ffffffffffffffffffffffffffffffffffffffff168373ffffffffffffffffffffffffffffffffffffffff167f17307eab39ab6107e8899845ad3d59bd9653f200f220920489ca2b5937696c31836040516110b59190611b50565b60405180910390a3505050565b60008373ffffffffffffffffffffffffffffffffffffffff163b111561126c578273ffffffffffffffffffffffffffffffffffffffff1663150b7a02868685856040518563ffffffff1660e01b81526004016111219493929190612316565b6020604051808303816000875af192505050801561115d57506040513d601f19601f8201168201806040525081019061115a9190612377565b60015b6111e1573d806000811461118d576040519150601f19603f3d011682016040523d82523d6000602084013e611192565b606091505b5060008151036111d957836040517f64a0ae920000000000000000000000000000000000000000000000000000000081526004016111d09190611cc1565b60405180910390fd5b805160208201fd5b63150b7a0260e01b7bffffffffffffffffffffffffffffffffffffffffffffffffffffffff1916817bffffffffffffffffffffffffffffffffffffffffffffffffffffffff19161461126a57836040517f64a0ae920000000000000000000000000000000000000000000000000000000081526004016112619190611cc1565b60405180910390fd5b505b5050505050565b606060405180602001604052806000815250905090565b606061129582610b0d565b5060006112a0611273565b905060008151116112c057604051806020016040528060008152506112eb565b806112ca8461169d565b6040516020016112db929190612226565b6040516020818303038152906040525b915050919050565b61130d82826040518060200160405280600081525061176b565b5050565b806006600084815260200190815260200160002090816113319190612550565b507ff8e1a15aba9398e019f0b49df1a4fde98ee17ae345cb5f6b5e2c27f5033e8ce7826040516113619190611dd7565b60405180910390a15050565b60007f01ffc9a7000000000000000000000000000000000000000000000000000000007bffffffffffffffffffffffffffffffffffffffffffffffffffffffff1916827bffffffffffffffffffffffffffffffffffffffffffffffffffffffff1916149050919050565b60006002600083815260200190815260200160002060009054906101000a900473ffffffffffffffffffffffffffffffffffffffff169050919050565b808061144d5750600073ffffffffffffffffffffffffffffffffffffffff168273ffffffffffffffffffffffffffffffffffffffff1614155b1561158157600061145d84610b0d565b9050600073ffffffffffffffffffffffffffffffffffffffff168373ffffffffffffffffffffffffffffffffffffffff16141580156114c857508273ffffffffffffffffffffffffffffffffffffffff168173ffffffffffffffffffffffffffffffffffffffff1614155b80156114db57506114d981846108cc565b155b1561151d57826040517fa9fbf51f0000000000000000000000000000000000000000000000000000000081526004016115149190611cc1565b60405180910390fd5b811561157f57838573ffffffffffffffffffffffffffffffffffffffff168273ffffffffffffffffffffffffffffffffffffffff167f8c5be1e5ebec7d5bd14f71427d1e84f3dd0314c0f7b2291e5b200ac8c7c3b92560405160405180910390a45b505b836004600085815260200190815260200160002060006101000a81548173ffffffffffffffffffffffffffffffffffffffff021916908373ffffffffffffffffffffffffffffffffffffffff16021790555050505050565b6115e483838361178f565b61169857600073ffffffffffffffffffffffffffffffffffffffff168373ffffffffffffffffffffffffffffffffffffffff160361165957806040517f7e2732890000000000000000000000000000000000000000000000000000000081526004016116509190611dd7565b60405180910390fd5b81816040517f177e802f00000000000000000000000000000000000000000000000000000000815260040161168f929190612622565b60405180910390fd5b505050565b6060600060016116ac84611850565b01905060008167ffffffffffffffff8111156116cb576116ca611e68565b5b6040519080825280601f01601f1916602001820160405280156116fd5781602001600182028036833780820191505090505b509050600082602083010190505b600115611760578080600190039150507f3031323334353637383961626364656600000000000000000000000000000000600a86061a8153600a85816117545761175361264b565b5b0494506000850361170b575b819350505050919050565b61177583836119a3565b61178a611780610bd2565b60008585856110c2565b505050565b60008073ffffffffffffffffffffffffffffffffffffffff168373ffffffffffffffffffffffffffffffffffffffff161415801561184757508273ffffffffffffffffffffffffffffffffffffffff168473ffffffffffffffffffffffffffffffffffffffff161480611808575061180784846108cc565b5b8061184657508273ffffffffffffffffffffffffffffffffffffffff1661182e83610b95565b73ffffffffffffffffffffffffffffffffffffffff16145b5b90509392505050565b600080600090507a184f03e93ff9f4daa797ed6e38ed64bf6a1f01000000000000000083106118ae577a184f03e93ff9f4daa797ed6e38ed64bf6a1f01000000000000000083816118a4576118a361264b565b5b0492506040810190505b6d04ee2d6d415b85acef810000000083106118eb576d04ee2d6d415b85acef810000000083816118e1576118e061264b565b5b0492506020810190505b662386f26fc10000831061191a57662386f26fc1000083816119105761190f61264b565b5b0492506010810190505b6305f5e1008310611943576305f5e10083816119395761193861264b565b5b0492506008810190505b612710831061196857612710838161195e5761195d61264b565b5b0492506004810190505b6064831061198b57606483816119815761198061264b565b5b0492506002810190505b600a831061199a576001810190505b80915050919050565b600073ffffffffffffffffffffffffffffffffffffffff168273ffffffffffffffffffffffffffffffffffffffff1603611a155760006040517f64a0ae92000000000000000000000000000000000000000000000000000000008152600401611a0c9190611cc1565b60405180910390fd5b6000611a2383836000610bec565b9050600073ffffffffffffffffffffffffffffffffffffffff168173ffffffffffffffffffffffffffffffffffffffff1614611a975760006040517f73c6ac6e000000000000000000000000000000000000000000000000000000008152600401611a8e9190611cc1565b60405180910390fd5b505050565b6000604051905090565b600080fd5b600080fd5b60007fffffffff0000000000000000000000000000000000000000000000000000000082169050919050565b611ae581611ab0565b8114611af057600080fd5b50565b600081359050611b0281611adc565b92915050565b600060208284031215611b1e57611b1d611aa6565b5b6000611b2c84828501611af3565b91505092915050565b60008115159050919050565b611b4a81611b35565b82525050565b6000602082019050611b656000830184611b41565b92915050565b600081519050919050565b600082825260208201905092915050565b60005b83811015611ba5578082015181840152602081019050611b8a565b60008484015250505050565b6000601f19601f8301169050919050565b6000611bcd82611b6b565b611bd78185611b76565b9350611be7818560208601611b87565b611bf081611bb1565b840191505092915050565b60006020820190508181036000830152611c158184611bc2565b905092915050565b6000819050919050565b611c3081611c1d565b8114611c3b57600080fd5b50565b600081359050611c4d81611c27565b92915050565b600060208284031215611c6957611c68611aa6565b5b6000611c7784828501611c3e565b91505092915050565b600073ffffffffffffffffffffffffffffffffffffffff82169050919050565b6000611cab82611c80565b9050919050565b611cbb81611ca0565b82525050565b6000602082019050611cd66000830184611cb2565b92915050565b611ce581611ca0565b8114611cf057600080fd5b50565b600081359050611d0281611cdc565b92915050565b60008060408385031215611d1f57611d1e611aa6565b5b6000611d2d85828601611cf3565b9250506020611d3e85828601611c3e565b9150509250929050565b600080600060608486031215611d6157611d60611aa6565b5b6000611d6f86828701611cf3565b9350506020611d8086828701611cf3565b9250506040611d9186828701611c3e565b9150509250925092565b600060208284031215611db157611db0611aa6565b5b6000611dbf84828501611cf3565b91505092915050565b611dd181611c1d565b82525050565b6000602082019050611dec6000830184611dc8565b92915050565b611dfb81611b35565b8114611e0657600080fd5b50565b600081359050611e1881611df2565b92915050565b60008060408385031215611e3557611e34611aa6565b5b6000611e4385828601611cf3565b9250506020611e5485828601611e09565b9150509250929050565b600080fd5b600080fd5b7f4e487b7100000000000000000000000000000000000000000000000000000000600052604160045260246000fd5b611ea082611bb1565b810181811067ffffffffffffffff82111715611ebf57611ebe611e68565b5b80604052505050565b6000611ed2611a9c565b9050611ede8282611e97565b919050565b600067ffffffffffffffff821115611efe57611efd611e68565b5b611f0782611bb1565b9050602081019050919050565b82818337600083830152505050565b6000611f36611f3184611ee3565b611ec8565b905082815260208101848484011115611f5257611f51611e63565b5b611f5d848285611f14565b509392505050565b600082601f830112611f7a57611f79611e5e565b5b8135611f8a848260208601611f23565b91505092915050565b60008060008060808587031215611fad57611fac611aa6565b5b6000611fbb87828801611cf3565b9450506020611fcc87828801611cf3565b9350506040611fdd87828801611c3e565b925050606085013567ffffffffffffffff811115611ffe57611ffd611aab565b5b61200a87828801611f65565b91505092959194509250565b6000806040838503121561202d5761202c611aa6565b5b600061203b85828601611cf3565b925050602061204c85828601611cf3565b9150509250929050565b600067ffffffffffffffff82111561207157612070611e68565b5b61207a82611bb1565b9050602081019050919050565b600061209a61209584612056565b611ec8565b9050828152602081018484840111156120b6576120b5611e63565b5b6120c1848285611f14565b509392505050565b600082601f8301126120de576120dd611e5e565b5b81356120ee848260208601612087565b91505092915050565b6000806040838503121561210e5761210d611aa6565b5b600061211c85828601611cf3565b925050602083013567ffffffffffffffff81111561213d5761213c611aab565b5b612149858286016120c9565b9150509250929050565b7f4e487b7100000000000000000000000000000000000000000000000000000000600052602260045260246000fd5b6000600282049050600182168061219a57607f821691505b6020821081036121ad576121ac612153565b5b50919050565b60006060820190506121c86000830186611cb2565b6121d56020830185611dc8565b6121e26040830184611cb2565b949350505050565b600081905092915050565b600061220082611b6b565b61220a81856121ea565b935061221a818560208601611b87565b80840191505092915050565b600061223282856121f5565b915061223e82846121f5565b91508190509392505050565b7f4e487b7100000000000000000000000000000000000000000000000000000000600052601160045260246000fd5b600061228482611c1d565b91507fffffffffffffffffffffffffffffffffffffffffffffffffffffffffffffffff82036122b6576122b561224a565b5b600182019050919050565b600081519050919050565b600082825260208201905092915050565b60006122e8826122c1565b6122f281856122cc565b9350612302818560208601611b87565b61230b81611bb1565b840191505092915050565b600060808201905061232b6000830187611cb2565b6123386020830186611cb2565b6123456040830185611dc8565b818103606083015261235781846122dd565b905095945050505050565b60008151905061237181611adc565b92915050565b60006020828403121561238d5761238c611aa6565b5b600061239b84828501612362565b91505092915050565b60008190508160005260206000209050919050565b60006020601f8301049050919050565b600082821b905092915050565b6000600883026124067fffffffffffffffffffffffffffffffffffffffffffffffffffffffffffffffff826123c9565b61241086836123c9565b95508019841693508086168417925050509392505050565b6000819050919050565b600061244d61244861244384611c1d565b612428565b611c1d565b9050919050565b6000819050919050565b61246783612432565b61247b61247382612454565b8484546123d6565b825550505050565b600090565b612490612483565b61249b81848461245e565b505050565b5b818110156124bf576124b4600082612488565b6001810190506124a1565b5050565b601f821115612504576124d5816123a4565b6124de846123b9565b810160208510156124ed578190505b6125016124f9856123b9565b8301826124a0565b50505b505050565b600082821c905092915050565b600061252760001984600802612509565b1980831691505092915050565b60006125408383612516565b9150826002028217905092915050565b61255982611b6b565b67ffffffffffffffff81111561257257612571611e68565b5b61257c8254612182565b6125878282856124c3565b600060209050601f8311600181146125ba57600084156125a8578287015190505b6125b28582612534565b86555061261a565b601f1984166125c8866123a4565b60005b828110156125f0578489015182556001820191506020850194506020810190506125cb565b8683101561260d5784890151612609601f891682612516565b8355505b6001600288020188555050505b505050505050565b60006040820190506126376000830185611cb2565b6126446020830184611dc8565b9392505050565b7f4e487b7100000000000000000000000000000000000000000000000000000000600052601260045260246000fdfea2646970667358221220e93feede7c249c809740232a1f9efea7db068c1d4c6b6694aeea296a089d57dd64736f6c63430008140033",
  "linkReferences": {},
  "deployedLinkReferences": {}
}