{
  "_format": "hh-sol-artifact-1",
  "contractName": "Pair",
  "sourceName": "contracts/Pair.sol",
  "abi": [
    {
      "inputs": [
        {
          "internalType": "address",
          "name": "_token1",
          "type": "address"
        }
      ],
      "stateMutability": "nonpayable",
      "type": "constructor"
    },
    {
      "inputs": [
        {
          "internalType": "address",
          "name": "spender",
          "type": "address"
        },
        {
          "internalType": "uint256",
          "name": "allowance",
          "type": "uint256"
        },
        {
          "internalType": "uint256",
          "name": "needed",
          "type": "uint256"
        }
      ],
      "name": "ERC20InsufficientAllowance",
      "type": "error"
    },
    {
      "inputs": [
        {
          "internalType": "address",
          "name": "sender",
          "type": "address"
        },
        {
          "internalType": "uint256",
          "name": "balance",
          "type": "uint256"
        },
        {
          "internalType": "uint256",
          "name": "needed",
          "type": "uint256"
        }
      ],
      "name": "ERC20InsufficientBalance",
      "type": "error"
    },
    {
      "inputs": [
        {
          "internalType": "address",
          "name": "approver",
          "type": "address"
        }
      ],
      "name": "ERC20InvalidApprover",
      "type": "error"
    },
    {
      "inputs": [
        {
          "internalType": "address",
          "name": "receiver",
          "type": "address"
        }
      ],
      "name": "ERC20InvalidReceiver",
      "type": "error"
    },
    {
      "inputs": [
        {
          "internalType": "address",
          "name": "sender",
          "type": "address"
        }
      ],
      "name": "ERC20InvalidSender",
      "type": "error"
    },
    {
      "inputs": [
        {
          "internalType": "address",
          "name": "spender",
          "type": "address"
        }
      ],
      "name": "ERC20InvalidSpender",
      "type": "error"
    },
    {
      "anonymous": false,
      "inputs": [
        {
          "indexed": true,
          "internalType": "address",
          "name": "owner",
          "type": "address"
        },
        {
          "indexed": true,
          "internalType": "address",
          "name": "spender",
          "type": "address"
        },
        {
          "indexed": false,
          "internalType": "uint256",
          "name": "value",
          "type": "uint256"
        }
      ],
      "name": "Approval",
      "type": "event"
    },
    {
      "anonymous": false,
      "inputs": [
        {
          "indexed": true,
          "internalType": "address",
          "name": "from",
          "type": "address"
        },
        {
          "indexed": true,
          "internalType": "address",
          "name": "to",
          "type": "address"
        },
        {
          "indexed": false,
          "internalType": "uint256",
          "name": "value",
          "type": "uint256"
        }
      ],
      "name": "Transfer",
      "type": "event"
    },
    {
      "inputs": [
        {
          "internalType": "uint256",
          "name": "amount1",
          "type": "uint256"
        }
      ],
      "name": "addLiquidity",
      "outputs": [
        {
          "internalType": "uint256",
          "name": "liquidity",
          "type": "uint256"
        }
      ],
      "stateMutability": "payable",
      "type": "function"
    },
    {
      "inputs": [
        {
          "internalType": "address",
          "name": "owner",
          "type": "address"
        },
        {
          "internalType": "address",
          "name": "spender",
          "type": "address"
        }
      ],
      "name": "allowance",
      "outputs": [
        {
          "internalType": "uint256",
          "name": "",
          "type": "uint256"
        }
      ],
      "stateMutability": "view",
      "type": "function"
    },
    {
      "inputs": [
        {
          "internalType": "address",
          "name": "spender",
          "type": "address"
        },
        {
          "internalType": "uint256",
          "name": "value",
          "type": "uint256"
        }
      ],
      "name": "approve",
      "outputs": [
        {
          "internalType": "bool",
          "name": "",
          "type": "bool"
        }
      ],
      "stateMutability": "nonpayable",
      "type": "function"
    },
    {
      "inputs": [
        {
          "internalType": "address",
          "name": "account",
          "type": "address"
        }
      ],
      "name": "balanceOf",
      "outputs": [
        {
          "internalType": "uint256",
          "name": "",
          "type": "uint256"
        }
      ],
      "stateMutability": "view",
      "type": "function"
    },
    {
      "inputs": [],
      "name": "decimals",
      "outputs": [
        {
          "internalType": "uint8",
          "name": "",
          "type": "uint8"
        }
      ],
      "stateMutability": "view",
      "type": "function"
    },
    {
      "inputs": [],
      "name": "getReserves",
      "outputs": [
        {
          "internalType": "uint256",
          "name": "_reserve0",
          "type": "uint256"
        },
        {
          "internalType": "uint256",
          "name": "_reserve1",
          "type": "uint256"
        }
      ],
      "stateMutability": "view",
      "type": "function"
    },
    {
      "inputs": [],
      "name": "name",
      "outputs": [
        {
          "internalType": "string",
          "name": "",
          "type": "string"
        }
      ],
      "stateMutability": "view",
      "type": "function"
    },
    {
      "inputs": [],
      "name": "reserve0",
      "outputs": [
        {
          "internalType": "uint256",
          "name": "",
          "type": "uint256"
        }
      ],
      "stateMutability": "view",
      "type": "function"
    },
    {
      "inputs": [],
      "name": "reserve1",
      "outputs": [
        {
          "internalType": "uint256",
          "name": "",
          "type": "uint256"
        }
      ],
      "stateMutability": "view",
      "type": "function"
    },
    {
      "inputs": [],
      "name": "symbol",
      "outputs": [
        {
          "internalType": "string",
          "name": "",
          "type": "string"
        }
      ],
      "stateMutability": "view",
      "type": "function"
    },
    {
      "inputs": [],
      "name": "token0",
      "outputs": [
        {
          "internalType": "address",
          "name": "",
          "type": "address"
        }
      ],
      "stateMutability": "view",
      "type": "function"
    },
    {
      "inputs": [],
      "name": "token1",
      "outputs": [
        {
          "internalType": "address",
          "name": "",
          "type": "address"
        }
      ],
      "stateMutability": "view",
      "type": "function"
    },
    {
      "inputs": [],
      "name": "totalSupply",
      "outputs": [
        {
          "internalType": "uint256",
          "name": "",
          "type": "uint256"
        }
      ],
      "stateMutability": "view",
      "type": "function"
    },
    {
      "inputs": [
        {
          "internalType": "address",
          "name": "to",
          "type": "address"
        },
        {
          "internalType": "uint256",
          "name": "value",
          "type": "uint256"
        }
      ],
      "name": "transfer",
      "outputs": [
        {
          "internalType": "bool",
          "name": "",
          "type": "bool"
        }
      ],
      "stateMutability": "nonpayable",
      "type": "function"
    },
    {
      "inputs": [
        {
          "internalType": "address",
          "name": "from",
          "type": "address"
        },
        {
          "internalType": "address",
          "name": "to",
          "type": "address"
        },
        {
          "internalType": "uint256",
          "name": "value",
          "type": "uint256"
        }
      ],
      "name": "transferFrom",
      "outputs": [
        {
          "internalType": "bool",
          "name": "",
          "type": "bool"
        }
      ],
      "stateMutability": "nonpayable",
      "type": "function"
    },
    {
      "stateMutability": "payable",
      "type": "receive"
    }
  ],
  "bytecode": "0x60c06040523480156200001157600080fd5b5060405162001ad638038062001ad68339818101604052810190620000379190620001a3565b6040518060400160405280601481526020017f4c697175696469747920506f6f6c20546f6b656e0000000000000000000000008152506040518060400160405280600281526020017f4c500000000000000000000000000000000000000000000000000000000000008152508160039081620000b491906200044f565b508060049081620000c691906200044f565b505050600073ffffffffffffffffffffffffffffffffffffffff1660808173ffffffffffffffffffffffffffffffffffffffff16815250508073ffffffffffffffffffffffffffffffffffffffff1660a08173ffffffffffffffffffffffffffffffffffffffff16815250505062000536565b600080fd5b600073ffffffffffffffffffffffffffffffffffffffff82169050919050565b60006200016b826200013e565b9050919050565b6200017d816200015e565b81146200018957600080fd5b50565b6000815190506200019d8162000172565b92915050565b600060208284031215620001bc57620001bb62000139565b5b6000620001cc848285016200018c565b91505092915050565b600081519050919050565b7f4e487b7100000000000000000000000000000000000000000000000000000000600052604160045260246000fd5b7f4e487b7100000000000000000000000000000000000000000000000000000000600052602260045260246000fd5b600060028204905060018216806200025757607f821691505b6020821081036200026d576200026c6200020f565b5b50919050565b60008190508160005260206000209050919050565b60006020601f8301049050919050565b600082821b905092915050565b600060088302620002d77fffffffffffffffffffffffffffffffffffffffffffffffffffffffffffffffff8262000298565b620002e3868362000298565b95508019841693508086168417925050509392505050565b6000819050919050565b6000819050919050565b6000620003306200032a6200032484620002fb565b62000305565b620002fb565b9050919050565b6000819050919050565b6200034c836200030f565b620003646200035b8262000337565b848454620002a5565b825550505050565b600090565b6200037b6200036c565b6200038881848462000341565b505050565b5b81811015620003b057620003a460008262000371565b6001810190506200038e565b5050565b601f821115620003ff57620003c98162000273565b620003d48462000288565b81016020851015620003e4578190505b620003fc620003f38562000288565b8301826200038d565b50505b505050565b600082821c905092915050565b6000620004246000198460080262000404565b1980831691505092915050565b60006200043f838362000411565b9150826002028217905092915050565b6200045a82620001d5565b67ffffffffffffffff811115620004765762000475620001e0565b5b6200048282546200023e565b6200048f828285620003b4565b600060209050601f831160018114620004c75760008415620004b2578287015190505b620004be858262000431565b8655506200052e565b601f198416620004d78662000273565b60005b828110156200050157848901518255600182019150602085019450602081019050620004da565b868310156200052157848901516200051d601f89168262000411565b8355505b6001600288020188555050505b505050505050565b60805160a05161157362000563600039600081816105980152610793015260006104a501526115736000f3fe6080604052600436106100ec5760003560e01c8063443cb4bc1161008a57806395d89b411161005957806395d89b411461030d578063a9059cbb14610338578063d21220a714610375578063dd62ed3e146103a0576100f3565b8063443cb4bc1461024a57806351c6590a146102755780635a76f25e146102a557806370a08231146102d0576100f3565b80630dfe1681116100c65780630dfe16811461018c57806318160ddd146101b757806323b872dd146101e2578063313ce5671461021f576100f3565b806306fdde03146100f85780630902f1ac14610123578063095ea7b31461014f576100f3565b366100f357005b600080fd5b34801561010457600080fd5b5061010d6103dd565b60405161011a9190610f67565b60405180910390f35b34801561012f57600080fd5b5061013861046f565b604051610146929190610fa2565b60405180910390f35b34801561015b57600080fd5b506101766004803603810190610171919061105a565b610480565b60405161018391906110b5565b60405180910390f35b34801561019857600080fd5b506101a16104a3565b6040516101ae91906110df565b60405180910390f35b3480156101c357600080fd5b506101cc6104c7565b6040516101d991906110fa565b60405180910390f35b3480156101ee57600080fd5b5061020960048036038101906102049190611115565b6104d1565b60405161021691906110b5565b60405180910390f35b34801561022b57600080fd5b50610234610500565b6040516102419190611184565b60405180910390f35b34801561025657600080fd5b5061025f610509565b60405161026c91906110fa565b60405180910390f35b61028f600480360381019061028a919061119f565b61050f565b60405161029c91906110fa565b60405180910390f35b3480156102b157600080fd5b506102ba61068e565b6040516102c791906110fa565b60405180910390f35b3480156102dc57600080fd5b506102f760048036038101906102f291906111cc565b610694565b60405161030491906110fa565b60405180910390f35b34801561031957600080fd5b506103226106dc565b60405161032f9190610f67565b60405180910390f35b34801561034457600080fd5b5061035f600480360381019061035a919061105a565b61076e565b60405161036c91906110b5565b60405180910390f35b34801561038157600080fd5b5061038a610791565b60405161039791906110df565b60405180910390f35b3480156103ac57600080fd5b506103c760048036038101906103c291906111f9565b6107b5565b6040516103d491906110fa565b60405180910390f35b6060600380546103ec90611268565b80601f016020809104026020016040519081016040528092919081815260200182805461041890611268565b80156104655780601f1061043a57610100808354040283529160200191610465565b820191906000526020600020905b81548152906001019060200180831161044857829003601f168201915b5050505050905090565b600080600554600654915091509091565b60008061048b61083c565b9050610498818585610844565b600191505092915050565b7f000000000000000000000000000000000000000000000000000000000000000081565b6000600254905090565b6000806104dc61083c565b90506104e9858285610856565b6104f48585856108eb565b60019150509392505050565b60006012905090565b60055481565b6000803411610553576040517f08c379a000000000000000000000000000000000000000000000000000000000815260040161054a906112e5565b60405180910390fd5b60008211610596576040517f08c379a000000000000000000000000000000000000000000000000000000000815260040161058d90611351565b60405180910390fd5b7f000000000000000000000000000000000000000000000000000000000000000073ffffffffffffffffffffffffffffffffffffffff166323b872dd3330856040518463ffffffff1660e01b81526004016105f393929190611371565b6020604051808303816000875af1158015610612573d6000803e3d6000fd5b505050506040513d601f19601f8201168201806040525081019061063691906113d4565b5034600560008282546106499190611430565b9250508190555081600660008282546106629190611430565b9250508190555061067d82346106789190611464565b6109df565b90506106893382610a59565b919050565b60065481565b60008060008373ffffffffffffffffffffffffffffffffffffffff1673ffffffffffffffffffffffffffffffffffffffff168152602001908152602001600020549050919050565b6060600480546106eb90611268565b80601f016020809104026020016040519081016040528092919081815260200182805461071790611268565b80156107645780601f1061073957610100808354040283529160200191610764565b820191906000526020600020905b81548152906001019060200180831161074757829003601f168201915b5050505050905090565b60008061077961083c565b90506107868185856108eb565b600191505092915050565b7f000000000000000000000000000000000000000000000000000000000000000081565b6000600160008473ffffffffffffffffffffffffffffffffffffffff1673ffffffffffffffffffffffffffffffffffffffff16815260200190815260200160002060008373ffffffffffffffffffffffffffffffffffffffff1673ffffffffffffffffffffffffffffffffffffffff16815260200190815260200160002054905092915050565b600033905090565b6108518383836001610adb565b505050565b600061086284846107b5565b90507fffffffffffffffffffffffffffffffffffffffffffffffffffffffffffffffff8110156108e557818110156108d5578281836040517ffb8f41b20000000000000000000000000000000000000000000000000000000081526004016108cc939291906114a6565b60405180910390fd5b6108e484848484036000610adb565b5b50505050565b600073ffffffffffffffffffffffffffffffffffffffff168373ffffffffffffffffffffffffffffffffffffffff160361095d5760006040517f96c6fd1e00000000000000000000000000000000000000000000000000000000815260040161095491906110df565b60405180910390fd5b600073ffffffffffffffffffffffffffffffffffffffff168273ffffffffffffffffffffffffffffffffffffffff16036109cf5760006040517fec442f050000000000000000000000000000000000000000000000000000000081526004016109c691906110df565b60405180910390fd5b6109da838383610cb2565b505050565b60006003821115610a4657819050600060016002846109fe919061150c565b610a089190611430565b90505b81811015610a40578091506002818285610a25919061150c565b610a2f9190611430565b610a39919061150c565b9050610a0b565b50610a54565b60008214610a5357600190505b5b919050565b600073ffffffffffffffffffffffffffffffffffffffff168273ffffffffffffffffffffffffffffffffffffffff1603610acb5760006040517fec442f05000000000000000000000000000000000000000000000000000000008152600401610ac291906110df565b60405180910390fd5b610ad760008383610cb2565b5050565b600073ffffffffffffffffffffffffffffffffffffffff168473ffffffffffffffffffffffffffffffffffffffff1603610b4d5760006040517fe602df05000000000000000000000000000000000000000000000000000000008152600401610b4491906110df565b60405180910390fd5b600073ffffffffffffffffffffffffffffffffffffffff168373ffffffffffffffffffffffffffffffffffffffff1603610bbf5760006040517f94280d62000000000000000000000000000000000000000000000000000000008152600401610bb691906110df565b60405180910390fd5b81600160008673ffffffffffffffffffffffffffffffffffffffff1673ffffffffffffffffffffffffffffffffffffffff16815260200190815260200160002060008573ffffffffffffffffffffffffffffffffffffffff1673ffffffffffffffffffffffffffffffffffffffff168152602001908152602001600020819055508015610cac578273ffffffffffffffffffffffffffffffffffffffff168473ffffffffffffffffffffffffffffffffffffffff167f8c5be1e5ebec7d5bd14f71427d1e84f3dd0314c0f7b2291e5b200ac8c7c3b92584604051610ca391906110fa565b60405180910390a35b50505050565b600073ffffffffffffffffffffffffffffffffffffffff168373ffffffffffffffffffffffffffffffffffffffff1603610d04578060026000828254610cf89190611430565b92505081905550610dd7565b60008060008573ffffffffffffffffffffffffffffffffffffffff1673ffffffffffffffffffffffffffffffffffffffff16815260200190815260200160002054905081811015610d90578381836040517fe450d38c000000000000000000000000000000000000000000000000000000008152600401610d87939291906114a6565b60405180910390fd5b8181036000808673ffffffffffffffffffffffffffffffffffffffff1673ffffffffffffffffffffffffffffffffffffffff16815260200190815260200160002081905550505b600073ffffffffffffffffffffffffffffffffffffffff168273ffffffffffffffffffffffffffffffffffffffff1603610e205780600260008282540392505081905550610e6d565b806000808473ffffffffffffffffffffffffffffffffffffffff1673ffffffffffffffffffffffffffffffffffffffff168152602001908152602001600020600082825401925050819055505b8173ffffffffffffffffffffffffffffffffffffffff168373ffffffffffffffffffffffffffffffffffffffff167fddf252ad1be2c89b69c2b068fc378daa952ba7f163c4a11628f55a4df523b3ef83604051610eca91906110fa565b60405180910390a3505050565b600081519050919050565b600082825260208201905092915050565b60005b83811015610f11578082015181840152602081019050610ef6565b60008484015250505050565b6000601f19601f8301169050919050565b6000610f3982610ed7565b610f438185610ee2565b9350610f53818560208601610ef3565b610f5c81610f1d565b840191505092915050565b60006020820190508181036000830152610f818184610f2e565b905092915050565b6000819050919050565b610f9c81610f89565b82525050565b6000604082019050610fb76000830185610f93565b610fc46020830184610f93565b9392505050565b600080fd5b600073ffffffffffffffffffffffffffffffffffffffff82169050919050565b6000610ffb82610fd0565b9050919050565b61100b81610ff0565b811461101657600080fd5b50565b60008135905061102881611002565b92915050565b61103781610f89565b811461104257600080fd5b50565b6000813590506110548161102e565b92915050565b6000806040838503121561107157611070610fcb565b5b600061107f85828601611019565b925050602061109085828601611045565b9150509250929050565b60008115159050919050565b6110af8161109a565b82525050565b60006020820190506110ca60008301846110a6565b92915050565b6110d981610ff0565b82525050565b60006020820190506110f460008301846110d0565b92915050565b600060208201905061110f6000830184610f93565b92915050565b60008060006060848603121561112e5761112d610fcb565b5b600061113c86828701611019565b935050602061114d86828701611019565b925050604061115e86828701611045565b9150509250925092565b600060ff82169050919050565b61117e81611168565b82525050565b60006020820190506111996000830184611175565b92915050565b6000602082840312156111b5576111b4610fcb565b5b60006111c384828501611045565b91505092915050565b6000602082840312156111e2576111e1610fcb565b5b60006111f084828501611019565b91505092915050565b600080604083850312156112105761120f610fcb565b5b600061121e85828601611019565b925050602061122f85828601611019565b9150509250929050565b7f4e487b7100000000000000000000000000000000000000000000000000000000600052602260045260246000fd5b6000600282049050600182168061128057607f821691505b60208210810361129357611292611239565b5b50919050565b7f4d7573742073656e642045544800000000000000000000000000000000000000600082015250565b60006112cf600d83610ee2565b91506112da82611299565b602082019050919050565b600060208201905081810360008301526112fe816112c2565b9050919050565b7f4d7573742073656e6420746f6b656e0000000000000000000000000000000000600082015250565b600061133b600f83610ee2565b915061134682611305565b602082019050919050565b6000602082019050818103600083015261136a8161132e565b9050919050565b600060608201905061138660008301866110d0565b61139360208301856110d0565b6113a06040830184610f93565b949350505050565b6113b18161109a565b81146113bc57600080fd5b50565b6000815190506113ce816113a8565b92915050565b6000602082840312156113ea576113e9610fcb565b5b60006113f8848285016113bf565b91505092915050565b7f4e487b7100000000000000000000000000000000000000000000000000000000600052601160045260246000fd5b600061143b82610f89565b915061144683610f89565b925082820190508082111561145e5761145d611401565b5b92915050565b600061146f82610f89565b915061147a83610f89565b925082820261148881610f89565b9150828204841483151761149f5761149e611401565b5b5092915050565b60006060820190506114bb60008301866110d0565b6114c86020830185610f93565b6114d56040830184610f93565b949350505050565b7f4e487b7100000000000000000000000000000000000000000000000000000000600052601260045260246000fd5b600061151782610f89565b915061152283610f89565b925082611532576115316114dd565b5b82820490509291505056fea2646970667358221220c6a48a9afac8c604592f6879c9f0dbba32c9ae36c3ae1ba5a04011681c87887764736f6c63430008140033",
  "linkReferences": {},
  "deployedLinkReferences": {}
}